:100000000C945D000C9475030C944E030C948500C5
:100010000C9485000C9485000C9485000C9485004C
:100020000C9485000C9485000C9485000C9485003C
:100030000C9485000C9485000C9485000C9485002C
:100040000C9404030C9485000C94C2030C949C0340
:100050000C9485000C9485000C9485000C9485000C
:100060000C9485000C9485000000000024002700FB
:100070002A0000000000250028002B0004040404CE
:100080000404040402020202020203030303030342
:10009000010204081020408001020408102001021F
:1000A00004081020000000080002010000030407FB
:1000B0000000000000000000E60411241FBECFEF86
:1000C000D8E0DEBFCDBF11E0A0E0B1E0EAE7FAE0A2
:1000D00002C005900D92A633B107D9F721E0A6E33F
:1000E000B1E001C01D92AE3DB207E1F710E0CDE5F1
:1000F000D0E004C02197FE010E943505CC35D10720
:10010000C9F70E94F4030C943B050C940000E7EA45
:10011000F0E02491E3E9F0E09491EFE7F0E0E4917E
:10012000EE23C9F0222339F0233001F1A8F4213065
:1001300019F1223029F1F0E0EE0FFF1FEE58FF4FCA
:10014000A591B4912FB7F894EC91811126C09095A8
:100150009E239C932FBF08952730A9F02830C9F023
:10016000243049F7209180002F7D03C0209180002A
:100170002F7720938000DFCF24B52F7724BDDBCFEE
:1001800024B52F7DFBCF2091B0002F772093B000B6
:10019000D2CF2091B0002F7DF9CF9E2BDACFCF9315
:1001A000DF9390E0FC01E057FF4F249184589F4F6C
:1001B000FC0184918823D1F090E0880F991FFC0105
:1001C000E859FF4FA591B491FC01EE58FF4FC5913E
:1001D000D491623071F49FB7F8943C91822F80954E
:1001E00083238C93E8812E2B28839FBFDF91CF91AF
:1001F00008958FB7F894EC912E2B2C938FBFF6CFE8
:10020000CF93DF93EC0161E083E00E94CF00209761
:1002100029F480E0DF91CF910C948700E7EAF0E0C9
:10022000E491E33031F148F4E130B9F0E230E1F04B
:10023000C038D10574F381E0EDCFE73021F1E8302B
:1002400051F1E430A9F780918000806280938000B2
:10025000D0938B00C0938A0004C084B5806884BDAD
:10026000C7BDDF91CF91089584B5806284BDC8BDBC
:10027000F8CF80918000806880938000D0938900BF
:10028000C0938800EECF8091B00080688093B0006A
:10029000C093B300E6CF8091B00080628093B0003D
:1002A000C093B400DECF0895AF92BF92CF92DF9299
:1002B000EF92FF920F931F93CF93DF936C017B011B
:1002C0008B01040F151FEB015E01AE18BF08C017AC
:1002D000D10759F06991D601ED91FC910190F0811F
:1002E000E02DC6010995892B79F7C501DF91CF91E2
:1002F0001F910F91FF90EF90DF90CF90BF90AF9044
:100300000895FC01538D448D252F30E0842F90E01B
:10031000821B930B541710F0CF9608950197089500
:10032000FC01918D828D981761F0A28DAE0FBF2FC9
:10033000B11D5D968C91928D9F5F9F73928F90E01F
:1003400008958FEF9FEF0895FC01918D828D98178E
:1003500031F0828DE80FF11D858D90E008958FEFCB
:100360009FEF0895FC01918D228D892F90E0805C94
:100370009F4F821B91098F739927089581E491E023
:100380000E94B20121E0892B09F420E0822F089518
:1003900080E090E0892B29F00E94BE0181110C942D
:1003A00000000895FC01A48DA80FB92FB11DA35A18
:1003B000BF4F2C91848D90E001968F739927848F85
:1003C000A689B7892C93A089B1898C9183708064A8
:1003D0008C93938D848D981306C00288F389E02D49
:1003E00080818F7D80830895EF92FF920F931F93FA
:1003F000CF93DF93EC0181E0888F9B8D8C8D9813D8
:100400001AC0E889F989808185FF15C09FB7F894E3
:10041000EE89FF896083E889F9898081837080642F
:1004200080839FBF81E090E0DF91CF911F910F917A
:10043000FF90EF900895F62E0B8D10E00F5F1F4F89
:100440000F731127E02E8C8D8E110CC00FB607FC98
:10045000FACFE889F989808185FFF5CFCE010E9426
:10046000D201F1CFEB8DEC0FFD2FF11DE35AFF4FC1
:10047000F0829FB7F8940B8FEA89FB8980818062B4
:10048000CFCFCF93DF93EC01888D8823B9F0AA8971
:10049000BB89E889F9898C9185FD03C0808186FD3F
:1004A0000DC00FB607FCF7CF8C9185FFF2CF80818E
:1004B00085FFEDCFCE010E94D201E9CFDF91CF9130
:1004C0000895FC0101900020E9F73197AF01481B26
:1004D000590BBC0181E491E00C945401CF93DF935C
:1004E0000E946102EC0186E191E00E9461028C0FA2
:1004F0009D1FDF91CF9108958F929F92AF92BF92EF
:10050000CF92DF92EF92FF92CF93DF93CDB7DEB71A
:10051000A1970FB6F894DEBF0FBECDBF8091360114
:10052000909137010196883091050CF04DC0909361
:10053000370180933601C0903601D09037010D2CE1
:10054000000CEE08FF08F7FE44C06DE281E491E084
:100550000E94F40122273327A9012C193D094E09D5
:100560005F0919A2CE0181967C019AE0892E912C17
:10057000A12CB12CCA01B901A50194010E94130557
:10058000605DF70162937F01211531054105510539
:1005900089F7E114F10419F0C7010E94610286E1B4
:1005A00091E00E946102A1960FB6F894DEBF0FBEE3
:1005B000CDBFDF91CF91FF90EF90DF90CF90BF90B4
:1005C000AF909F908F90089510923701109236014E
:1005D000B2CFA701960119A2CE0181967C018AE0D3
:1005E000882E912CA12CB12CCA01B901A50194012E
:1005F0000E941305605DF70162937F0121153105AB
:100600004105510589F7C5CF1F920F920FB60F9282
:1006100011242F933F938F939F93AF93BF93809118
:100620003D0190913E01A0913F01B0914001309178
:100630003C0123E0230F2D3758F50196A11DB11D74
:1006400020933C0180933D0190933E01A0933F0194
:10065000B09340018091380190913901A0913A0105
:10066000B0913B010196A11DB11D8093380190937B
:100670003901A0933A01B0933B01BF91AF919F9193
:100680008F913F912F910F900FBE0F901F90189553
:1006900026E8230F0296A11DB11DD2CF1F920F9203
:1006A0000FB60F9211242F933F934F935F936F9345
:1006B0007F938F939F93AF93BF93EF93FF93E091BB
:1006C0000201F09103010995FF91EF91BF91AF9164
:1006D0009F918F917F916F915F914F913F912F915A
:1006E0000F900FBE0F901F9018951F920F920FB68C
:1006F0000F9211242F933F934F935F936F937F93A8
:100700008F939F93AF93BF93EF93FF93E09100017B
:10071000F09101010995FF91EF91BF91AF919F91E8
:100720008F917F916F915F914F913F912F910F909A
:100730000FBE0F901F9018951F920F920FB60F9239
:1007400011242F933F934F935F936F937F938F93D6
:100750009F93AF93BF93EF93FF9381E491E00E9447
:10076000D201FF91EF91BF91AF919F918F917F91B6
:100770006F915F914F913F912F910F900FBE0F900E
:100780001F9018951F920F920FB60F9211242F935E
:100790008F939F93EF93FF93E0915101F09152015A
:1007A0008081E0915701F091580182FD1BC090813A
:1007B00080915A018F5F8F7320915B01821741F006
:1007C000E0915A01F0E0EF5BFE4F958F80935A0164
:1007D000FF91EF919F918F912F910F900FBE0F90EE
:1007E0001F9018958081F4CF789484B5826084BD81
:1007F00084B5816084BD85B5826085BD85B5816025
:1008000085BD80916E00816080936E0010928100A2
:10081000809181008260809381008091810081605D
:10082000809381008091800081608093800080911E
:10083000B10084608093B1008091B00081608093AA
:10084000B00080917A00846080937A0080917A0071
:10085000826080937A0080917A00816080937A0030
:1008600080917A00806880937A001092C100E091B4
:100870005101F091520182E08083E0914D01F091AD
:100880004E011082E0914F01F09150018FEC808376
:1008900010925901E0915501F091560186E0808354
:1008A000E0915301F0915401808180618083E09157
:1008B0005301F0915401808188608083E09153015D
:1008C000F0915401808180688083E0915301F09120
:1008D000540180818F7D80838CE792E090930101A9
:1008E00080930001809169008C7F82608093690011
:1008F000E89A8091B100887F81608093B10061E0C7
:1009000083E00E94CF0062E082E00E94CF00C0E05E
:10091000D0E08091360190913701009789F490E002
:1009200080E00E94000189E191E00E946E02209720
:1009300081F30E94BE01882361F30E940000E9CF89
:100940008130910539F485E090E00E9400018FE14B
:1009500091E0EBCF8230910539F480E290E00E9483
:10096000000186E291E0E1CF8330910539F485E220
:1009700090E00E94000184E291E0D7CF843091059D
:1009800039F483E490E00E94000182E391E0CDCF4E
:100990008530910539F485E590E00E94000189E2F7
:1009A00091E0C3CF8630910539F48AE890E00E9447
:1009B00000018CE291E0B9CF079709F0B8CF88EA3F
:1009C00090E00E9400018FE291E0AFCFE1E4F1E01E
:1009D0001382128288EE93E0A0E0B0E084839583D6
:1009E000A683B78388E091E09183808385EC90E0D3
:1009F0009587848784EC90E09787868780EC90E0E9
:100A0000918B808B81EC90E0938B828B82EC90E0D9
:100A1000958B848B86EC90E0978B868B118E128E53
:100A2000138E148E0895A1E21A2EAA1BBB1BFD0182
:100A30000DC0AA1FBB1FEE1FFF1FA217B307E407BD
:100A4000F50720F0A21BB30BE40BF50B661F771F15
:100A5000881F991F1A9469F76095709580959095F5
:100A60009B01AC01BD01CF010895EE0FFF1F059062
:0A0A7000F491E02D0994F894FFCFF3
:100A7A005301530100000000F401540181014102B5
:100A8A00B2019001A4010D0A00312E3235760031EF
:100A9A002E357600332E33760036760039760031DD
:060AAA00302E357600003D
:00000001FF
